:100000000C942A000C9447000C9447000C94470071
:100010000C9447000C9447000C9447000C949A06EB
:100020000C9447000C9447000C9447000C94470034
:100030000C9447000C9447000C9447000C94470024
:100040000C9472100C9447000C9447000C944700D9
:100050000C94470011241FBECFE5D8E0DEBFCDBF12
:1000600011E0A0E6B0E0E4EFFEE202C005900D92E0
:10007000A038B107D9F717E0A0E8B1E001C01D92A0
:10008000AF36B107E1F70E9425160C9478170C944F
:10009000000080918001882321F0809181018111ED
:1000A00081E0109280011092810108958F929F92B9
:1000B000AF92BF92CF92DF92EF92FF920F931F9376
:1000C000182F8AE062E040E00E94C00A909383010A
:1000D0008093820182E8882E81E0982E8EEC90E059
:1000E00060E670E045E550E09401012FEE24FF2426
:1000F000CC24DD24AA24BB240E949E0E82E990E039
:1001000068E670E045E550E094010E949E0E1F9164
:100110000F91FF90EF90DF90CF90BF90AF909F90A6
:100120008F900895CF92DF92EF92FF920F931F93DB
:10013000DF93CF9300D0CDB7DEB77C011A8219824E
:1001400000E010E06E010894C11CD11C1FC0F70133
:1001500080819181B60140E050E020E00E94D30907
:10016000813011F001E011C0002351F40FB6F89472
:100170000F92809181018F5F809381010F900FBE5C
:1001800089819A8101969A8389831F5F1330FCF2DB
:1001900088EC90E00E94D70D10E0D9CF9F92AF92EB
:1001A000BF92CF92DF92EF92FF920F931F93DF9354
:1001B000CF9300D0CDB7DEB7982EC92EEE24FF2402
:1001C000DD245E010894A11CB11C23C0F8018081CC
:1001D0009181B50140E050E020E00E94200981308B
:1001E000C1F429813A812E153F0519F0DD24D394FD
:1001F0000CC0DD2051F40FB6F8940F92809180016D
:100200008F5F809380010F900FBE79010894E11CED
:10021000F11C092D1C2DF801808191810E94F606A8
:100220008823A1F684EB90E00E94D70DF2CFEF92E5
:10023000FF920F931F93DC011596ED91FC91169799
:10024000E680F7808701045F1F4FC8010E94950573
:1002500085EB91E0B8010E94440520E0E091840123
:10026000F0918501D70156969C918689981708F0E0
:1002700021E0822F1F910F91FF90EF900895FF9240
:100280000F931F93CF93DF9399E0F92E21C0F89439
:10029000E091BA01F091BB0106811781C8010C966B
:1002A0000E9495057894E8012296CE010E9495055A
:1002B000F801968980918601891710F49093860140
:1002C0009F9DC001112483579E4FBE010E9444058B
:1002D0008091B5018823D9F60E94F20A2091870106
:1002E00030918801821B930B90938A01809389013E
:1002F00089E0F82E53C0019690938C0180938B0176
:100300002150304030938A0120938901892B09F0D4
:100310003EC02091B1013091B2018091B301909122
:10032000B4019093B2018093B1013093B401209352
:10033000B3012DC00580F681E02DC681D7812091C3
:100340008B0130918C018A819B812817390730F10C
:10035000F8948E010E5F1F4FC8010E9495058C898D
:100360009D89892B21F0CE010C960E9495057894E9
:100370009E8980918601891710F4909386019F9D34
:10038000C001112483579E4FB8010E944405E0919B
:10039000B101F091B2018081882361F62091890139
:1003A00030918A0180918B0190918C01211531054A
:1003B00009F0A1CF909388018093870190918601E5
:1003C00029E006C0992319F41092860132C0915099
:1003D000929FD0011124A357BE4F8C91882391F393
:1003E000909386011196ED91FC9112970280F38112
:1003F000E02D1296FC93EE931197CD010396E8172A
:10040000F90731F48281938112969C938E93119710
:100410001196ED91FC9112970680F781E02DF093F3
:100420008501E093840120813181CF016789F90141
:100430000995DF91CF911F910F91FF9008950F9330
:100440001F93CF93DF93EB0100918B0110918C01EF
:10045000080F191F809184019091850102960E94D6
:100460009505E0918401F0918501138302838091C9
:100470008B0190918C01BF016E5F7F4F08171907A8
:1004800028F48091B3019091B40104C08091B1012E
:100490009091B2010E946305209749F06091840118
:1004A00070918501645F7F4FCE010E946305DF91EB
:1004B000CF911F910F910895AF92BF92CF92DF928B
:1004C000EF92FF920F931F93CF93DF936C01B62EA1
:1004D000A42E8AE190E00E947704EC01009711F4C9
:1004E0008FEF59C08091840190918501892B21F56E
:1004F000D0938501C09384018DE891E00E9430057E
:1005000086E991E00E9430052FE9E22E21E0F22EEB
:10051000C7010E94300508EA11E0C8010E943005B9
:1005200085EB91E00E943005F092B201E092B101BA
:100530001093B4010093B301EB2CBB2011F0EE2417
:10054000E394198E188EEE8AAF8AFE01C192D19281
:100550008F01CF010E944005CE010C960E944005FC
:10056000D987C887DB8BCA8B82E090E08E1991090E
:100570009D878C879E8980918601891710F49093BE
:10058000860189E0989FC001112483579E4FB801CE
:100590000E94440581E0DF91CF911F910F91FF9060
:1005A000EF90DF90CF90BF90AF900895FC010FB611
:1005B000F8940F92208131816095709562237323A6
:1005C000718360830F900FBEC9010895FC01808183
:1005D00091810895BA010E94D6020895CF93DF93C6
:1005E000EC010E94EC0A06C08F81988560E072E001
:1005F0000E94AF0B8A818823B9F7CE010E9467045D
:100600000E94650DDF91CF910895CF92DF92EF9216
:10061000FF920F931F93CF93DF938B01EC0185E043
:10062000E82EF12CEC0EFD1E0E94EC0AEF81F885FD
:1006300088819981802B912B9983888300E010E039
:1006400024C0D280C38080819181BC016070AC01E4
:1006500050702881398192FD05C024233523232B36
:1006600031F40FC0242335232417350751F470FFCC
:1006700002C0042B152B688179817260CF010E9422
:10068000AF0B8D2D9C2D9C01F901EE15FF05C9F6D0
:10069000009510958881998180239123998388837F
:1006A0000E94650D88819981DF91CF911F910F91F3
:1006B000FF90EF90DF90CF900895BA010E9405035C
:1006C0000895AF92BF92CF92DF92EF92FF920F9375
:1006D0001F93CF93DF937B01A42EB22E68018C0170
:1006E0000E94EC0AF80120813181C7018223932303
:1006F000BB2021F4892B09F05AC004C08E159F0538
:1007000009F455C0C114D10459F4E9011BC0C70153
:100710008095909582239323F801918380834AC02A
:10072000AA2019F060E071E002C060E070E0B11052
:1007300074606E297F29C8010296A6010E94240DCB
:10074000C0E0D0E00E94650DCD2829F1882311F486
:100750000E949D060E94970B91FD1BC00FB6F89456
:100760000F92F80180819181970128233923BB20C2
:1007700019F4232B19F50BC02E153F0541F41EC0AB
:10078000E094F094E822F922F801F182E0820F90DF
:100790000FBEEC01D070CE01DF91CF911F910F9170
:1007A000FF90EF90DF90CF90BF90AF900895AA2078
:1007B00009F0ADCFE901CC24DD24C4CFAA2001F794
:1007C000E6CF8F929F92AF92BF92CF92DF92EF923D
:1007D000FF920F931F93CF93DF93F82EE92E8B0197
:1007E0005A014901C82ED92E0E94EC0AF601C08197
:1007F000D1818F2D9E2DB8010E940503C02BD12BD6
:10080000C5018C239D238A159B0569F495012095CC
:100810003095F60180819181822393239183808397
:100820008824992410C08114910451F0B501756099
:10083000C6010296A4010E94240DC0E0D0E003C0CE
:10084000F601C081D1810E94650D8928F9F08823C5
:1008500011F40E949D060E94970B9C0191FD14C00B
:100860000FB6F8940F92F60120813181C5018223E1
:1008700093238A159B0531F4A094B094A222B3224D
:10088000B182A0820F900FBEE901D070CE01DF913E
:10089000CF911F910F91FF90EF90DF90CF90BF907D
:1008A000AF909F908F900895CF93DF938BE090E06F
:1008B0000E947704EC01009731F0FC011192119233
:1008C000CF010E943005CE01DF91CF9108950895A8
:1008D0001092BF011092BE01089523E135E080918E
:1008E000BE019091BF01281B390BC9010895CF9318
:1008F000DF93EC010E94EC0A8091C0019091C1014C
:10090000892B31F483EC91E09093C1018093C00175
:100910002091BE013091BF01CE01820F931F45E0AF
:100920008331940770F42817390758F4C091C00137
:10093000D091C101C20FD31F9093BF018093BE011C
:1009400002C0C0E0D0E00E94650DCE01DF91CF91E2
:1009500008959F92AF92BF92CF92DF92EF92FF9253
:100960000F931F93DF93CF9300D000D0CDB7DEB7A6
:100970008C01EE24FF249BE7A92EB12CC12CD12C95
:100980009924939403C081E0E82EF12CA982BA82C5
:10099000CB82DC8289819A81AB81BC81895B9B4659
:1009A000AC4FBF4F89839A83AB83BC8369817A81C3
:1009B0008B819C812DEF3FEF4FEF5FEF0E94EC1694
:1009C00069837A838B839C8369817A818B819C8103
:1009D00027E030E040E050E00E945417C901DA01FE
:1009E00089839A83AB83BC8389819A81AB81BC81E3
:1009F0008B519747AE4FBF4F31F6E114F10409F028
:100A0000C2CF0FB6F8940F92F80190820F900FBEEC
:100A1000BDCF8091D6061092D606811181E008954F
:100A2000AF92BF92CF92DF92EF92FF920F93082F77
:100A300089EA94E060E770E045E550E026ED36E0B5
:100A4000EE24FF24CC24DD24AA24BB240E949E0E85
:100A50000F91FF90EF90DF90CF90BF90AF900895EF
:100A6000FC019C012D5F3F4F328321838FEF9FEF6D
:100A70009483838336832583308727831082089568
:100A8000FC01118610860895AC01FC01A181B281A0
:100A9000FB01B383A28314968D919C911597958346
:100AA00084831496ED91FC91159773836283159658
:100AB0007C936E931497FB0151874087FA018081E4
:100AC0008F5F80830895CF93DF939C01EB01488172
:100AD00059818FEF4F3F580721F4F901A781B08565
:100AE0000DC0D90113961296ED91FC911397808158
:100AF00091814817590710F0DF01F5CF1296ED915B
:100B0000FC911397FB83EA83D583C483BD83AC83B5
:100B10001396DC93CE93129739872887F901808149
:100B20008F5F8083DF91CF910895CF93DF93DC01B6
:100B30001896CD91DC91199712964D915C9113976F
:100B400014968D919C911597FA0195838483149640
:100B50002D913C911597F9015383428389819A81A4
:100B60008A179B0711F43A83298319961C921E92C7
:100B70001897888181508883DF91CF910895FC0177
:100B800091E1908322E2229383E3829362937293B2
:100B9000129280E88293129282E0829383E08293A1
:100BA00084E0829385E0829386E0829387E082935B
:100BB00088E0829389E0829380E18293929382E13C
:100BC000829383E1829384E1829385E1829386E13B
:100BD000829387E1829388E1829389E1829380E224
:100BE000829381E28293229383E28293429352938F
:100BF00086E2829387E2829388E2829389E28293FB
:100C000080E3829381E382933197CF0108951BBCE7
:100C10008CE78ABD8BE08EBD89B7806189BFA091CA
:100C2000D706B091D806CD91CDBFDD91DEBFFF9143
:100C3000EF91DF91CF91BF91AF919F918F917F9174
:100C40006F915F914F913F912F911F910F91FF9065
:100C5000EF90DF90CF90BF90AF909F908F907F905C
:100C60006F905F904F903F902F901F900F900FBE0E
:100C70000F90089581E0089508950F920FB6F894AB
:100C80000F921F9211242F923F924F925F926F9278
:100C90007F928F929F92AF92BF92CF92DF92EF920C
:100CA000FF920F931F932F933F934F935F936F93F5
:100CB0007F938F939F93AF93BF93CF93DF93EF93E4
:100CC000FF93A091D706B091D8060DB60D920EB63F
:100CD0000D920E94230C882311F00E94060BA09114
:100CE000D706B091D806CD91CDBFDD91DEBFFF9183
:100CF000EF91DF91CF91BF91AF919F918F917F91B4
:100D00006F915F914F913F912F911F910F91FF90A4
:100D1000EF90DF90CF90BF90AF909F908F907F909B
:100D20006F905F904F903F902F901F900F900FBE4D
:100D30000F9008950E943D0618950F920FB6F894F3
:100D40000F921F9211242F923F924F925F926F92B7
:100D50007F928F929F92AF92BF92CF92DF92EF924B
:100D6000FF920F931F932F933F934F935F936F9334
:100D70007F938F939F93AF93BF93CF93DF93EF9323
:100D8000FF93A091D706B091D8060DB60D920EB67E
:100D90000D920E94060BA091D706B091D806CD9176
:100DA000CDBFDD91DEBFFF91EF91DF91CF91BF917C
:100DB000AF919F918F917F916F915F914F913F91F3
:100DC0002F911F910F91FF90EF90DF90CF90BF90E8
:100DD000AF909F908F907F906F905F904F903F90DB
:100DE0002F901F900F900FBE0F9008950FB6F8949C
:100DF0000F92FC01828D0F900FBE0895FC010FB67B
:100E0000F8940F92928D0F900FBE838D891B0895D9
:100E1000FC01828D0895FC01828D90E0882309F405
:100E200091E0892F0895FC01928D20E0838D981721
:100E300009F421E0822F08951F93CF93DF93EC01F3
:100E4000142F4C8D4423E1F11123B1F48C819D8149
:100E500050E00E946F178C8D2C813D81280F311D31
:100E60003D832C838A819B812817390748F188812B
:100E700099819D838C8324C08E819F8150E00E9444
:100E80006F178C8D90E044275527481B590B8E8196
:100E90009F81840F951F9F838E83288139818217BC
:100EA000930730F48A819B81840F951F9F838E83E3
:100EB000123031F48A8D882319F08A8D81508A8FFF
:100EC0008A8D8F5F8A8F80E0DF91CF911F91089587
:100ED000FC01562FA72F248D2223B9F086819781FC
:100EE000820F911D97838683228133818217930716
:100EF00020F08081918197838683448D66817781FC
:100F0000852F9A2F50E00E946F1708950F931F931B
:100F1000CF93DF93EC018A8D882341F00E811F81EE
:100F2000CE010E9468071F830E8381E0DF91CF917D
:100F30001F910F9108950F931F93CF93DF93FB01A0
:100F40008A01EC018A8D882361F18C8D2E813F818D
:100F5000280F311D3F832E838A819B8128173907F3
:100F600020F0888199819F838E838A8D81508A8F1A
:100F70004C8D6E817F81CF0150E00E946F17F80188
:100F80008081882369F48885882351F0CE010896F2
:100F90000E941701882321F081E0F801808301C0BD
:100FA00081E0DF91CF911F910F9108951F93CF930F
:100FB000DF93142FEC019A8D8B8D981788F4CE0156
:100FC00040E00E941C07112359F48989882341F0CD
:100FD000CE0141960E941701482F811141E0142F44
:100FE000812FDF91CF911F910895CF93DF93FB0164
:100FF000EC01F8948A8D882371F44115510541F074
:101000006196CA01BE010E941F0278948CEF2FC026
:10101000789480E02CC07894F8948A8D882331F1FC
:101020008C8D2E813F81280F311D3F832E838A8135
:101030009B812817390720F0888199819F838E83AF
:101040008A8D81508A8F4C8D6E817F81CF0150E0D7
:101050000E946F178885882341F0CE0108960E9470
:101060001701882311F08BEF01C081E07894DF91A4
:10107000CF910895CF93DF93EC01F8940FB6F894D5
:101080000F928A8D9B8D0F900FBE891771F44115B9
:10109000510541F02896CA01BE010E941F027894B2
:1010A0008CEF1BC0789480E018C07894F8948A8DF7
:1010B000891710F080E010C0CE0140E00E941C07AC
:1010C0008989882341F0CE0141960E941701882327
:1010D00011F08BEF01C081E07894DF91CF910895FA
:1010E000CF93DF93EC0188819981009711F00E94E2
:1010F0006704CE010E946704DF91CF9108950F939A
:101100001F93CF93DF938A01EC018A8D8823E9F046
:10111000CE010E9468078A8D81508A8F8D8D8F3F06
:1011200081F48885882381F0CE0108960E94E30B24
:10113000882351F00115110539F081E0F801808311
:1011400004C08D8D8F5F8D8F81E0DF91CF911F91D6
:101150000F9108950F931F93CF93DF938A01EC01B2
:101160009A8D8B8D981720F0223011F080E023C0EB
:10117000CE01422F0E941C07882331F00115110572
:1011800019F081E0F80180838E8D8F3F81F4898989
:10119000882381F0CE0141960E94E30B882351F011
:1011A0000115110539F081E0F801808304C08E8DAE
:1011B0008F5F8E8F81E0DF91CF911F910F91089506
:1011C0000F931F93CF93DF93EC010FB6F8940F9218
:1011D0008C010F5E1F4F0DC08989882369F0C801FB
:1011E0000E94E30B882311F00E948D0B8E8D81509D
:1011F0008E8F8E8D181684F38FEF8E8F0F900FBE0B
:101200000FB6F8940F928E01085F1F4F0DC08885AE
:10121000882369F0C8010E94E30B882311F00E9423
:101220008D0B8D8D81508D8F8D8D181684F38FEFE2
:101230008D8F0F900FBEDF91CF911F910F91089569
:101240007F928F929F92AF92BF92CF92DF92EF9256
:10125000FF920F931F93DF93CF9300D000D00F9294
:10126000CDB7DEB75B015D834C83722E8C0191E1BB
:10127000C92ED12CC00ED11E20E07E010894E11CA5
:10128000F11C84E0882E912C8C0E9D1E01C021E063
:101290000FB6F8940F92F801828D882339F1E68019
:1012A000F780C801B5010E946807772071F4F80142
:1012B000828D8150828F80858823A1F0C801089695
:1012C0000E94E30B813071F40BC0F801F782E682D3
:1012D0008189882339F0C6010E94E30B882311F02D
:1012E0000E949D060F900FBE81E04AC08C819D81B7
:1012F000892B19F40F900FBE42C0222319F4C701A5
:101300000E944F0B0F900FBE0E94EC0A0FB6F8948C
:101310000F92F801858D8F3F09F4158EF801868DA7
:101320008F3F09F4168E0F900FBEC701B4010E94C3
:101330005A0B8823F9F40FB6F8940F92F801828DB6
:101340000F900FBE882381F46C817D81C6010E94BD
:10135000480DC8010E94E0080E94650D882309F02D
:1013600096CF0E949D0693CFC8010E94E0080E947C
:10137000650D8DCFC8010E94E0080E94650D80E0D8
:101380000F900F900F900F900F90CF91DF911F91C2
:101390000F91FF90EF90DF90CF90BF90AF909F9014
:1013A0008F907F9008956F927F929F92AF92BF929D
:1013B000CF92DF92EF92FF920F931F93DF93CF9321
:1013C00000D000D00F92CDB7DEB76B015D834C83A8
:1013D000922E8C0148E0E42EF12CE80EF91E20E05C
:1013E0005E010894A11CB11C34E0632E712C6C0EBC
:1013F0007D1E01C021E00FB6F8940F92F801928D86
:10140000838D981718F0F2E09F16C9F4C801B60151
:10141000492D0E941C07982FF8018189882339F0F3
:10142000C80141960E94E30B813029F402C0992340
:1014300011F00E949D060F900FBE81E04CC08C8180
:101440009D81892B19F40F900FBE44C0222319F4FB
:10145000C5010E944F0B0F900FBE0E94EC0A0FB601
:10146000F8940F92F801858D8F3F09F4158EF801DD
:10147000868D8F3F09F4168E0F900FBEC501B30104
:101480000E945A0B882309F50FB6F8940F92F801C1
:10149000928D0F900FBEF801838D981781F46C81A7
:1014A0007D81C7010E94480DC8010E94E0080E948A
:1014B000650D882309F09ECF0E949D069BCFC80131
:1014C0000E94E0080E94650D95CFC8010E94E008C7
:1014D0000E94650D80E00F900F900F900F900F907D
:1014E000CF91DF911F910F91FF90EF90DF90CF9000
:1014F000BF90AF909F907F906F900895CF93DF93B0
:10150000EC010FB6F8940F92EC8D2B8DE29FC00189
:10151000112448815981840F951F9B838A831A8ED9
:101520005D834C8330E021503040F0E02E9FC001BD
:101530002F9F900D3E9F900D1124480F591F5F83E0
:101540004E838FEF8D8F8E8F662361F4888588237D
:1015500089F0CE0108960E94E30B813059F40E9475
:101560009D0608C0CE0108960E943005CE01419626
:101570000E9430050F900FBE81E0DF91CF9108955A
:101580000F931F93CF93DF93182F062F8823E1F03B
:101590008FE190E00E947704EC010097A9F0019F91
:1015A000C001112401960E947704998388830097D3
:1015B00041F01B8F0C8FCE0161E00E947E0A9E01DC
:1015C00005C0CE010E94670420E030E0C901DF9130
:1015D000CF911F910F9108958091DE068F5F8093C8
:1015E000DE0608950FB6F8940F922091DA06309136
:1015F000DB060F900FBEC90108952091DA063091E5
:10160000DB06C90108958091E00608958091DE0609
:10161000882321F081E08093D90608951092D9069D
:1016200005C08091DD0681508093DD068091DD0646
:1016300090E0FC0123E0EE0FFF1F2A95E1F7E80F91
:10164000F91FEC51F94F8081882359F39091DD0601
:1016500089E0989FD0011124AC51B94F1196ED91BA
:10166000FC9112970280F381E02D1296FC93EE9389
:101670001197CD010396E817F90731F48281938120
:1016800012969C938E9311971196ED91FC9112975F
:10169000868197819093D8068093D7060895FC01A0
:1016A0008091DC0680838091DA069091DB0692833C
:1016B00081830895FC01DB010FB6F8940F924091ED
:1016C000DA065091DB069091DC068081981729F0AC
:1016D0008181928148175907E0F4218132816D910F
:1016E0007C911197CA01821B930B8617970788F488
:1016F000241B350B260F371F2D933C938091DC065E
:1017000080838091DA069091DB069283818380E06A
:1017100001C081E00F900FBE089581E08093D9064B
:1017200008952091D7063091D806C9010895E09117
:10173000D706F091D80684859585A091D706B091FB
:10174000D806E091D706F091D806468927E030E028
:10175000241B31091D963C932E931C9708950F93DB
:101760001F93CF93DF93FC01706871836083C68100
:10177000D7810E9495058E010E5F1F4FC8010E9400
:1017800095059E898091DD06891710F49093DD06FA
:1017900089E0989FC00111248C51994FB8010E9493
:1017A0004405E091D706F091D8069E89868989176D
:1017B00010F080E003C081E08093D906DF91CF91E3
:1017C0001F910F9108950F931F93CF93DF93DC0127
:1017D0001596ED91FC911697C681D7818E01045F15
:1017E0001F4FC8010E9495058091DE068823A1F451
:1017F0008E010E5F1F4FC8010E9495059E89809142
:10180000DD06891710F49093DD0689E0989FC001EA
:1018100011248C51994F02C089E397E0B8010E94CE
:101820004405E091D706F091D8069E8986898917EC
:1018300010F080E003C081E08093D906DF91CF9162
:101840001F910F910895CF92DF92EF92FF920F9325
:101850001F93CF93DF938091DE06882309F0A7C002
:101860008091DA069091DB0601969093DB068093D7
:10187000DA06E090DA06F090DB06E114F10479F57F
:1018800020913507309136078091370790913807BE
:1018900090933607809335073093380720933707A6
:1018A0008091DC068F5F8093DC06E0913507F09134
:1018B00036078081882319F48FEF9FEF0CC0E091E9
:1018C0003507F09136070580F681E02D0680F78117
:1018D000E02D8281938190933F0180933E0180911E
:1018E0003E0190913F01E816F90608F449C0DD2455
:1018F00049E0C42EE0913507F091360780818823B6
:1019000019F48FEF9FEF0EC0E0913507F091360785
:101910000580F681E02DC681D7818A819B81E816FA
:10192000F90628F490933F0180933E012AC08E016E
:101930000E5F1F4FC8010E9495058C899D89892BD8
:1019400021F0CE010C960E9495059E898091DD06BE
:10195000891710F49093DD069C9DC00111248C51D1
:10196000994FB8010E944405E091D706F091D8063E
:101970009E898689981708F4BDCFDD24D394BACF09
:10198000DD24E091D706F091D806868990E0FC012D
:1019900033E0EE0FFF1F3A95E1F7E80FF91FEC5126
:1019A000F94F8081823048F0DD24D39406C08091C5
:1019B000DF068F5F8093DF06DD248091D9068823C0
:1019C00011F0DD24D3948D2DDF91CF911F910F91D4
:1019D000FF90EF90DF90CF900895CF93DF93EC01CD
:1019E000E091D706F091D806938382838091DA063E
:1019F0009091DB06C817D90768F48091370790915A
:101A000038076091D7067091D8066E5F7F4F0E94AD
:101A1000630517C080913507909136076091D7060E
:101A20007091D8066E5F7F4F0E94630580913E01E2
:101A300090913F01C817D90720F4D0933F01C0937C
:101A40003E01DF91CF9108950F931F938A01E0919A
:101A5000D706F091D8067068758764876091D706BD
:101A60007091D806645F7F4F0E9444058091D7062D
:101A70009091D80602960E9495058091DA06909181
:101A8000DB06800F911F0E94ED0C1F910F910895AE
:101A90000F931F938B016091D7067091D806645FF6
:101AA0007F4F0E9463058091D7069091D8060296D9
:101AB0000E9495058091DA069091DB06800F911FB8
:101AC0000E94ED0C1F910F910895EF92FF920F93DA
:101AD0001F93CF93DF930FB6F8940F928091DE0699
:101AE00081508093DE068091DE06882309F055C080
:101AF0008091E006882359F550C0E0913E07F091AF
:101B00003F07C681D781CE010C960E9495058E01B4
:101B10000E5F1F4FC8010E9495059E898091DD06CA
:101B2000891710F49093DD069E9DC00111248C51FD
:101B3000994FB8010E944405E091D706F091D8066C
:101B40009E898689981738F0F092D90604C059E02A
:101B5000E52EFF24F39480913907882371F6809154
:101B6000DF06882369F411C00E94230C882311F03A
:101B70001093D9068091DF0681508093DF0601C063
:101B800011E08091DF06882379F78091D9068130B2
:101B900021F40E949D0681E001C080E00F900FBEFD
:101BA000DF91CF911F910F91FF90EF9008950F93C8
:101BB0001F93CF93DF93EC010097C9F08091DE066D
:101BC0008F5F8093DE060091DA061091DB0680912C
:101BD000D7069091D80602960E949505CE01800FF7
:101BE000911F0E94ED0C0E94650D882311F40E9444
:101BF0009D06DF91CF911F910F9108950F931F9331
:101C0000CF93DF930FB6F8940F92009729F4C09109
:101C1000D706D091D80601C0EC018E010E5F1F4F90
:101C2000C8010E9495058C899D89892B21F0CE01E0
:101C30000C960E94950582E497E0B8010E94440545
:101C40008091E2068F5F8093E2068091E3068F5FCA
:101C50008093E3060F900FBE8091E106882349F13F
:101C60008091D7069091D806C817D90719F40E9419
:101C70009D061FC00FB6F8940F92E0913507F091C2
:101C800036078081882319F48FEF9FEF0CC0E09115
:101C90003507F09136070580F681E02D0680F78143
:101CA000E02D8281938190933F0180933E010F90BC
:101CB0000FBEDF91CF911F910F910895F89410926C
:101CC000E1060E943C0608950F931F932CC080915B
:101CD000DE068F5F8093DE06109142070E94650D3D
:101CE000112309F10FB6F8940F92E0914707F09194
:101CF000480706811781C80102960E9495058091C8
:101D0000E00681508093E0068091E2068150809346
:101D1000E2060F900FBEF8018789908D0E9467043C
:101D2000C8010E9467048091E206882381F68091B1
:101D3000E4068230C0F30E949D06F5CF2F923F92B9
:101D40004F925F927F928F929F92AF92BF92CF926B
:101D5000DF92EF92FF920F931F93CF93DF931C01BB
:101D6000962E872E5A012901702EE6018DE290E011
:101D70000E9477046C01009779F0209721F4C50147
:101D80000E947704EC01F601D08FC78B209709F0F1
:101D9000C8C0C6010E9467048FEFB1C08081599608
:101DA0008C9359978081882329F09F5F31961196F3
:101DB0009431A1F7F60114A6072DF6E0F71508F403
:101DC00006E0F601068B72E0872E912C8C0C9D1C90
:101DD000C4010E944005C6010C960E944005F60110
:101DE000D186C08687E090E0801B91099587848723
:101DF000D38AC28A0894A108B108CE018A0D9B1D1E
:101E0000B101A2010E94BF05F60191838083E11414
:101E1000F10419F0F701D182C0820FB6F8940F9245
:101E20008091E0068F5F8093E0068091D7069091C5
:101E3000D806892B79F5D092D806C092D706809122
:101E4000E0068130B1F5C4EED6E0CE010E94300547
:101E50002996F7E0C332DF07C1F763E2E62E67E0B9
:101E6000F62EC7010E9430050CE217E0C8010E945F
:101E7000300589E397E00E94300582E497E00E94F4
:101E80003005F0923607E09235071093380700933B
:101E900037070FC08091E106882359F4E091D706F7
:101EA000F091D8068689781620F0D092D806C09294
:101EB000D7068091E3068F5F8093E306F60196894B
:101EC0008091DD06891710F49093DD0689E0989FD4
:101ED000C00111248C51994FB4010E9444050F9008
:101EE0000FBE8091E106882349F0E091D706F0917A
:101EF000D8068689871510F40E949D0681E0DF913F
:101F0000CF911F910F91FF90EF90DF90CF90BF90F6
:101F1000AF909F908F907F905F904F903F902F90C9
:101F20000895892D982D9C01F901D60190E036CFB6
:101F3000AF92BF92CF92DF92EF92FF920F9384E61F
:101F40009EE068E770E045E550E020E030E000E02A
:101F5000EE24FF24CC24DD24AA24BB240E949E0E60
:101F6000813049F4F8948093E1061092DB061092D8
:101F7000DA060E9407060F91FF90EF90DF90CF9056
:101F8000BF90AF900895FB01389839983A983B98E4
:101F90003C9897B1982B97B9369A349BFECF349AD8
:101FA00084B195B19183808381E008951F93CF938D
:101FB000DF93182FEB016115710539F48BE790E081
:101FC00060E04CE02EE00E94A010123038F08BE769
:101FD00090E060E04CE025E10E94A0108091620753
:101FE000882339F08BE790E060E04CE02BE00E9422
:101FF000A01080916C07813039F48BE790E060E0AD
:102000004CE02AE00E94A010E12FF0E0EE0FFF1F4D
:10201000E05AF84FD183C08381E0DF91CF911F91C7
:102020000895CF93DF93EC01009739F48BE790E0AC
:1020300060E040E02EE00E94A010109262078981CB
:10204000813041F0813018F0823041F405C03F9872
:102050003E9804C03F9801C03F9A3E9A8A818823E7
:1020600019F0813021F402C03D9A01C03D98888169
:102070008330B9F0843028F4813069F0823078F40C
:1020800007C0853099F0853070F08630A1F410C01B
:102090003098319802C03098319A32980CC0309AFA
:1020A000FBCF309801C0309A319804C0309801C0FD
:1020B000309A319A329A379ADF91CF910895339AB4
:1020C00008953398089580914D07882349F481E05D
:1020D00080934D0770934C0760934B07339A369A61
:1020E00080E008951F920F920FB60F9211242F9344
:1020F0003F934F935F936F937F938F939F93AF9390
:10210000BF93EF93FF93E0914B07F0914C0730970B
:1021100031F0339884B195B1099510924D07FF9134
:10212000EF91BF91AF919F918F917F916F915F914F
:102130004F913F912F910F900FBE0F901F901895C8
:1021400081E00895282F27708695869586958130A1
:1021500049F0813028F0823039F08330B1F40DC07D
:1021600089B303C086B301C083B390E002C09595E4
:1021700087952A95E2F78170089580B390E002C0B8
:10218000959587952A95E2F781700895382F3770D5
:10219000869586958695813029F1813038F0823098
:1021A00009F43CC0833009F06EC053C0613059F46B
:1021B0002BB381E090E002C0880F991F3A95E2F7B7
:1021C000282B2BBB0895662309F05DC02BB381E05B
:1021D00090E002C0880F991F3A95E2F7809582231C
:1021E0008BBB0895613059F428B381E090E002C0C0
:1021F000880F991F3A95E2F7282B28BB089566238C
:1022000009F041C028B381E090E002C0880F991F17
:102210003A95E2F78095822388BB0895613059F49E
:1022200025B381E090E002C0880F991F3A95E2F74C
:10223000282B25BB0895662331F525B381E090E076
:1022400002C0880F991F3A95E2F78095822385BBDB
:102250000895613059F422B381E090E002C0880F04
:10226000991F3A95E2F7282B22BB0895662359F46B
:1022700022B381E090E002C0880F991F3A95E2F7FF
:102280008095822382BB0895382F37708695869576
:102290008695813029F1813038F0823009F43CC0D4
:1022A000833009F06EC053C0613059F42AB381E025
:1022B00090E002C0880F991F3A95E2F7282B2ABBBD
:1022C0000895662309F05DC02AB381E090E002C062
:1022D000880F991F3A95E2F7809582238ABB08956B
:1022E000613059F427B381E090E002C0880F991F54
:1022F0003A95E2F7282B27BB0895662309F041C0E1
:1023000027B381E090E002C0880F991F3A95E2F769
:102310008095822387BB0895613059F424B381E00E
:1023200090E002C0880F991F3A95E2F7282B24BB52
:102330000895662331F524B381E090E002C0880F50
:10234000991F3A95E2F78095822384BB0895613006
:1023500059F421B381E090E002C0880F991F3A95AB
:10236000E2F7282B21BB0895662359F421B381E0BD
:1023700090E002C0880F991F3A95E2F7809582237A
:1023800081BB0895813049F0813028F0823039F0E6
:10239000833041F406C08BB3089588B3089585B3A4
:1023A000089582B30895813049F0813028F0823059
:1023B00039F0833041F406C06BBB089568BB0895C3
:1023C00065BB089562BB0895813049F0813028F0E3
:1023D000823039F0833041F406C06ABB089567BB90
:1023E000089564BB089561BB08950F931F938C01FA
:1023F000FC0185810E94A21090E0A0E0B0E0F8010D
:10240000208131814281538182239323A423B523E8
:10241000048004C0B695A795979587950A94D2F73E
:102420001F910F910895FC01858190E0A0E0B0E03C
:10243000208131814281538182239323A423B523B8
:10244000048004C0B695A795979587950A94D2F70E
:102450000E94C6100895382F377086958695869508
:10246000813099F0813028F08230D9F0833081F5C5
:1024700024C02BB381E090E002C0880F991F3A95E9
:10248000E2F728272BBB8BB3089528B381E090E0B7
:1024900002C0880F991F3A95E2F7282728BB88B316
:1024A000089525B381E090E002C0880F991F3A9506
:1024B000E2F7282725BB85B3089522B381E090E099
:1024C00002C0880F991F3A95E2F7282722BB82B3F2
:1024D0000895FF920F931F93CF93DF93FF24C0E0E3
:1024E000D0E00F2D10E0F801E05CFE4F8F2D6081F1
:1024F0000E944411005A1E4F8F2DF80160810E94E6
:10250000C610F3942196C032D10559F7DF91CF91CF
:102510001F910F91FF9008951F93182F682F6170DE
:1025200083E00E94C610612F6695617084E00E946E
:10253000C61016951695612F617085E00E94C61031
:102540001695117086E0612F0E94C6101F910895A4
:10255000FF920F931F93F82E80E061E00E94C61057
:1025600081E060E00E94C61082E061E00E94C61037
:102570008F2D82958F700E948C1200ED17E0C8019C
:102580000197F1F782E060E00E94C610C801019750
:10259000F1F782E061E00E94C6108F2D0E948C123C
:1025A000C8010197F1F782E060E00E94C610C801FF
:1025B0000197F1F71F910F91FF900895FF920F93EC
:1025C0001F93F82E80E060E00E94C61081E060E07A
:1025D0000E94C61082E061E00E94C6108F2D829595
:1025E0008F700E948C1200ED17E0C8010197F1F77F
:1025F00082E060E00E94C610C8010197F1F782E016
:1026000061E00E94C6108F2D0E948C12C8010197B4
:10261000F1F782E060E00E94C610C8010197F1F76F
:102620001F910F91FF9008950F931F9384EF91E0F6
:1026300028EC30E0F9013197F1F70197D9F780E004
:1026400060E00E94C61081E060E00E94C61082E057
:1026500061E00E94C61082E00E948C1200ED17E03B
:10266000C8010197F1F782E060E00E94C610C8013E
:102670000197F1F715E8812F8A95F1F788E20E941A
:10268000DE12812F8A95F1F78CE00E94DE121A95F6
:10269000F1F781E00E94DE1200EA1FE0C801019715
:1026A000F1F786E00E94DE12C8010197F1F71F9151
:1026B0000F910895089581E00E94DE1208958130FF
:1026C00019F4862F805809C0823019F4862F80545F
:1026D00004C0833029F4862F80570E94DE120895AB
:1026E000843021F4862F80530E94DE120895DF92F9
:1026F000EF92FF920F931F93CF93DF938C01F62EEF
:10270000E42ED22E862F880F880F880F805C0E94BF
:10271000DE12C0E0D0E0F801EC0FFD1F80810E94C6
:10272000A8122196C830D105B1F78E2D6D2D0E94CB
:102730005F138F2D0E94A812DF91CF911F910F91EF
:10274000FF90EF90DF9008950F931F938C0164E644
:1027500070E00E940B176AE070E00E940B17862F52
:10276000805D0E94A812C8016AE070E00E940B1709
:10277000805D0E94A8121F910F9108950F931F93DF
:102780008C0160E177E20E940B1768EE73E00E9413
:102790000B17862F805D0E94A812C80168EE73E0B7
:1027A0000E940B1764E670E00E940B17862F805D75
:1027B0000E94A812C80164E670E00E940B176AE04C
:1027C00070E00E940B17862F805D0E94A812C8013E
:1027D0006AE070E00E940B17805D0E94A8121F91B2
:1027E0000F910895EF92FF921F93DF93CF93CDB790
:1027F000DEB7A0970FB6F894DEBF0FBECDBF382F5F
:10280000882359F1FE01319680E2DF011D928A95FD
:10281000E9F720E0AF01E22FF0E0EE0FFF1FE40F39
:10282000F51F832F817090E0C096918380832F5F86
:10283000369589F7122F7E010894E11CF11C0BC01C
:10284000E12FF0E03197EE0FFF1FEE0DFF1D8081AD
:102850000E94A8121150112399F7A0960FB6F89470
:10286000DEBF0FBECDBFCF91DF911F91FF90EF90E4
:102870000895CF92DF92EF92FF920F931F93DF9311
:10288000CF93CDB7DEB7A0970FB6F894DEBF0FBEDB
:10289000CDBF8C017E010894E11CF11C80E2F701A0
:1028A00011928A95E9F71016110674F540E0E42FAD
:1028B000F0E0EE0FFF1FEE0DFF1DC8016AE070E0B3
:1028C0000E941F1790E0C096918380834F5FC801DC
:1028D0006AE070E00E941F178B016115710539F7DE
:1028E000142F7E010894E11CF11C0BC0E12FF0E0D5
:1028F0003197EE0FFF1FEE0DFF1D80810E94A81281
:102900001150112399F73CC001151105B1F18DE269
:102910000E94A81240E0670150E3E52EF12CE42F5D
:10292000F0E0EE0FFF1FEC0DFD1DC8016AE070E046
:102930000E941F179701281B3109318320834F5FA5
:10294000C8016AE070E00E941F178B0161157105D4
:1029500031F7142F7E010894E11CF11C0BC0E12F0C
:10296000F0E03197EE0FFF1FEE0DFF1D80810E94FA
:10297000A8121150112399F703C080E30E94A812F6
:10298000A0960FB6F894DEBF0FBECDBFCF91DF91FA
:102990001F910F91FF90EF90DF90CF9008951F93BC
:1029A000CF93DF93EC0110E003C00E94A8121F5FD9
:1029B000FE01E10FF11D80818823B9F7DF91CF91EE
:1029C0001F910895FF920F931F938DE790E00E944F
:1029D000B61684E0F82E80914E0790914F0768E07C
:1029E00070E041E020E00FEF1FEF0E946103809351
:1029F0006D0790936E0783FFEECFF8BAECCFFF928E
:102A00000F931F938DE890E00E94B61692E0F92E86
:102A100080914E0790914F0762E070E041E020E026
:102A20000FEF1FEF0E94610380936D0790936E0775
:102A300081FFEECFF8BA80914E0790914F0768E082
:102A400070E00E94050390936E0780936D07E0CFBE
:102A50001F9387EA90E00E94B61614E018BBB09B63
:102A600013C080914E0790914F0761E070E00E9483
:102A7000050390936E0780936D0704C08AE090E091
:102A80000E94D70DB099FACF82E390E00E94D70D53
:102A9000E5CFFF920F931F9388EB90E00E94B6164C
:102AA00022E0F22E80914E0790914F0761E070E096
:102AB00041E020E00FEF1FEF0E94610380936D075C
:102AC00090936E0780FFEECFF8BA88EE93E00E94F5
:102AD000D70D80914E0790914F0768E070E00E94FB
:102AE000050390936E0780936D07DCCF0F931F93C0
:102AF000CF93DF9388EC90E00E94B616C8ECD0E04C
:102B000080914E0790914F076FE070E041E020E028
:102B10000FEF1FEF0E94610380936D0790936E0784
:102B200080FF0AC00E945B1381E060E00E945F1397
:102B300087ED90E00E94CF1480916D0781FF21C046
:102B40000E945B1381E060E00E945F1387EE90E0DB
:102B50000E94CF1482E060E00E945F1386EF90E055
:102B60000E94CF1480915E070E94A81280915F0797
:102B70000E94A81280E197E2FE013197F1F70197D8
:102B8000D9F780916D0783FF0AC00E945B1381E033
:102B900060E00E945F1383E091E00E94CF14809177
:102BA0006D0782FFADCF0E945B1381E191E00E942F
:102BB000CF1482E060E00E945F1386EF90E00E94F5
:102BC000CF1480915E070E94A81280915F070E9437
:102BD000A81296CFFF920F931F9381E291E00E947B
:102BE000B61634E0F32EF8BA0E94AE16182F0E94E3
:102BF000AE16082F10935E0780935F07812F0E9407
:102C0000B216802F0E94B21680914E0790914F0706
:102C1000153318F064E070E002C062E070E00E94DA
:102C2000050390936E0780936D07DDCF86E087BB29
:102C300080E895E20E94951684E391E00E94B61622
:102C40000E9469120E9414130895AF92BF92CF920E
:102C5000DF92EF92FF920F930E9416160E94540487
:102C600090934F0780934E0789E495E160E070E010
:102C700044E650E020E030E006E0F2E5EF2EF7E039
:102C8000FF2ECC24DD24AA24BB240E949E0E86E7BE
:102C900095E160E070E046E950E020E030E004E0DB
:102CA000E4E5EE2EE7E0FE2E0E949E0E8AEE95E110
:102CB00060E070E046E950E020E030E001E0B6E599
:102CC000EB2EB7E0FB2E0E949E0E8FEF94E160E0AA
:102CD00070E046E950E020E030E005E0A8E5EA2EAB
:102CE000A7E0FA2E0E949E0E82EE94E160E070E072
:102CF00044E650E020E030E002E0FAE5EF2EF7E0B5
:102D0000FF2E0E949E0E88E295E160E070E044E6AE
:102D100050E020E030E003E0E0E5EE2EE7E0FE2EBC
:102D20000E949E0E0E94980FFFCF9C0140E050E051
:102D300084E0220F331F441F551F8A95D1F760E0AE
:102D400072E18AE790E00E9432172150304029B9A1
:102D500030BD86E880BD88E18AB908955F9BFECFCB
:102D60008CB108955D9BFECF8CB90895FC0104C021
:102D70005D9BFECF8CB9319680818823C9F7089579
:102D80009C015D9BFECFC9016AE070E00E940B17B9
:102D90008CB95D9BFECFC9016AE070E00E940B1701
:102DA000CB016AE070E00E940B178CB95D9BFECFEF
:102DB000C90164E670E00E940B17CB016AE070E085
:102DC0000E940B178CB95D9BFECFC90168EE73E0C2
:102DD0000E940B176CB90895629FD001739FF00198
:102DE000829FE00DF11D649FE00DF11D929FF00D9B
:102DF000839FF00D749FF00D659FF00D9927729FD2
:102E0000B00DE11DF91F639FB00DE11DF91FBD015C
:102E1000CF0111240895AA1BBB1B51E107C0AA1FB3
:102E2000BB1FA617B70710F0A61BB70B881F991F6B
:102E30005A95A9F780959095BC01CD01089597FB0F
:102E4000092E07260AD077FD04D0E5DF06D0002042
:102E50001AF4709561957F4F0895F6F790958195D6
:102E60009F4F0895A1E21A2EAA1BBB1BFD010DC0A6
:102E7000AA1FBB1FEE1FFF1FA217B307E407F5072A
:102E800020F0A21BB30BE40BF50B661F771F881F06
:102E9000991F1A9469F760957095809590959B019C
:102EA000AC01BD01CF01089597FB092E05260ED078
:102EB00057FD04D0D7DF0AD0001C38F45095409558
:102EC000309521953F4F4F4F5F4F0895F6F79095FE
:102ED0008095709561957F4F8F4F9F4F0895FB01AF
:102EE000DC0102C001900D9241505040D8F7089586
:042EF000F894FFCF84
:102EF40051436F6E734E42005150726F644E4200E4
:102F0400496E744D6174680049444C4500526574BF
:102F140075726E204D6F76696E670D0A00545F4DB1
:102F24006F746F7253746F7070696E67205374613D
:102F3400727465640D0A00545F43616D6572614487
:102F440065746563740D0A00545F43616D65726155
:102F5400416C61726D0D0A00545F4C636444697383
:102F6400706C61790D0A004163636964616E742059
:102F740068617070656E0044697374616E63653C6A
:102F8400353020636D0044697374616E6365206934
:102F9400733D0052657475726E204D6F76696E676D
:102FA4000044697374616E63653E3D353020436D42
:102FB40000545F44657465637444697374616E633B
:102FC400650D0A00537461727465640D0A00FFFF95
:102FD40001010101010101010001010001010001E0
:102FE40001010101000000000001010101010101D2
:102FF40000000000000000000000000001000000CC
:1030040000000101010101010000000000000000B6
:00000001FF
